{
  "contractName": "FundMe",
  "abi": [
    {
      "inputs": [
        {
          "internalType": "address",
          "name": "",
          "type": "address"
        }
      ],
      "name": "addressToAmountFunded",
      "outputs": [
        {
          "internalType": "uint256",
          "name": "",
          "type": "uint256"
        }
      ],
      "stateMutability": "view",
      "type": "function"
    },
    {
      "inputs": [],
      "name": "fund",
      "outputs": [],
      "stateMutability": "payable",
      "type": "function"
    }
  ],
  "bytecode": "0x608060405234801561001057600080fd5b5060d38061001f6000396000f3fe60806040526004361060265760003560e01c80633e47d6f314602b578063b60d428814606c575b600080fd5b348015603657600080fd5b50605a60048036036020811015604b57600080fd5b50356001600160a01b03166074565b60408051918252519081900360200190f35b60726086565b005b60006020819052908152604090205481565b33600090815260208190526040902080543401905556fea264697066735822122090c484fe6887ab3c24e7ee79134db6614b4f1c4cc376eb9a712489d70844a5f064736f6c634300060c0033",
  "immutableReferences": {},
  "source": "// SPDX-License-Identifier: MIT\r\npragma solidity >=0.6.0 <0.9.0;\r\n\r\nimport \"@chainlink/contracts/src/v0.6/interfaces/AggregatorV3Interface.sol\";\r\n\r\ncontract FundMe {\r\n\r\n  mapping(address => uint256) public addressToAmountFunded;\r\n\r\n  function fund() public payable {\r\n    addressToAmountFunded[msg.sender] += msg.value;\r\n  }\r\n\r\n}\r\n",
  "sourcePath": "C:/Users/ytrev/desktop/custom-smart-contracts/contracts/FundMe.sol",
  "compiler": {
    "name": "solc",
    "version": "0.6.12+commit.27d51765.Emscripten.clang"
  },
  "schemaVersion": "3.3.3",
  "updatedAt": "2021-10-27T09:08:24.736Z",
  "devdoc": {
    "kind": "dev",
    "methods": {},
    "version": 1
  },
  "userdoc": {
    "kind": "user",
    "methods": {},
    "version": 1
  }
}