{
  "contractName": "SimpleStorage",
  "abi": [
    {
      "inputs": [
        {
          "internalType": "string",
          "name": "",
          "type": "string"
        }
      ],
      "name": "nameToFavoriteNumber",
      "outputs": [
        {
          "internalType": "uint256",
          "name": "",
          "type": "uint256"
        }
      ],
      "stateMutability": "view",
      "type": "function"
    },
    {
      "inputs": [
        {
          "internalType": "uint256",
          "name": "",
          "type": "uint256"
        }
      ],
      "name": "people",
      "outputs": [
        {
          "internalType": "uint256",
          "name": "num",
          "type": "uint256"
        },
        {
          "internalType": "string",
          "name": "name",
          "type": "string"
        }
      ],
      "stateMutability": "view",
      "type": "function"
    },
    {
      "inputs": [
        {
          "internalType": "uint256",
          "name": "_favoriteNumber",
          "type": "uint256"
        }
      ],
      "name": "store",
      "outputs": [],
      "stateMutability": "nonpayable",
      "type": "function"
    },
    {
      "inputs": [],
      "name": "retrieve",
      "outputs": [
        {
          "internalType": "uint256",
          "name": "",
          "type": "uint256"
        }
      ],
      "stateMutability": "view",
      "type": "function"
    },
    {
      "inputs": [
        {
          "internalType": "string",
          "name": "_name",
          "type": "string"
        },
        {
          "internalType": "uint256",
          "name": "_favoriteNumber",
          "type": "uint256"
        }
      ],
      "name": "addPerson",
      "outputs": [],
      "stateMutability": "nonpayable",
      "type": "function"
    }
  ],
  "bytecode": "0x608060405234801561001057600080fd5b50610516806100206000396000f3fe608060405234801561001057600080fd5b50600436106100575760003560e01c80632e64cec11461005c5780636057361d146100765780636f760f41146100955780638bab8dd51461013d5780639e7a13ad146101e3575b600080fd5b61006461027f565b60408051918252519081900360200190f35b6100936004803603602081101561008c57600080fd5b5035610285565b005b610093600480360360408110156100ab57600080fd5b8101906020810181356401000000008111156100c657600080fd5b8201836020820111156100d857600080fd5b803590602001918460018302840111640100000000831117156100fa57600080fd5b91908080601f016020809104026020016040519081016040528093929190818152602001838380828437600092019190915250929550509135925061028a915050565b6100646004803603602081101561015357600080fd5b81019060208101813564010000000081111561016e57600080fd5b82018360208201111561018057600080fd5b803590602001918460018302840111640100000000831117156101a257600080fd5b91908080601f01602080910402602001604051908101604052809392919081815260200183838082843760009201919091525092955061037b945050505050565b610200600480360360208110156101f957600080fd5b5035610398565b6040518083815260200180602001828103825283818151815260200191508051906020019080838360005b8381101561024357818101518382015260200161022b565b50505050905090810190601f1680156102705780820380516001836020036101000a031916815260200191505b50935050505060405180910390f35b60005490565b600055565b604080518082019091528181526020808201848152600180548082018255600091909152835160029091027fb10e2d527612073b26eecdfd717e6a320cf44b4afac2b0732d9fcbe2b7fa0cf68101918255915180519193610310937fb10e2d527612073b26eecdfd717e6a320cf44b4afac2b0732d9fcbe2b7fa0cf7019291019061044d565b505050806002836040518082805190602001908083835b602083106103465780518252601f199092019160209182019101610327565b51815160209384036101000a600019018019909216911617905292019485525060405193849003019092209290925550505050565b805160208183018101805160028252928201919093012091525481565b600181815481106103a557fe5b60009182526020918290206002918202018054600180830180546040805193821615610100026000190190911695909504601f81018790048702830187019095528482529195509193919290918301828280156104435780601f1061041857610100808354040283529160200191610443565b820191906000526020600020905b81548152906001019060200180831161042657829003601f168201915b5050505050905082565b828054600181600116156101000203166002900490600052602060002090601f016020900481019282601f1061048e57805160ff19168380011785556104bb565b828001600101855582156104bb579182015b828111156104bb5782518255916020019190600101906104a0565b506104c79291506104cb565b5090565b5b808211156104c757600081556001016104cc56fea26469706673582212208c4d0050e9bdec35dd35847fe65a4fb97804f81737958bf73fca493f9eb45b3a64736f6c634300060c0033",
  "immutableReferences": {},
  "source": "// SPDX-License-Identifier: MIT\r\npragma solidity >=0.6.0 <0.9.0;\r\n\r\ncontract SimpleStorage {\r\n  uint256 favoriteNumber;\r\n  //bool favoriteBool = true;\r\n  //string favoriteString = \"Yo\";\r\n  //int256 favoriteInt = 5; //int can be positive or negative\r\n  //address favoriteAddress = ;\r\n  //bytes32 favoriteBytes = \"cat\";\r\n\r\n  struct People {\r\n    uint256 num;\r\n    string name;\r\n  }\r\n\r\n  //People public person = People({num: 69, name: \"Yo Momma\"});\r\n  People[] public people;\r\n  mapping(string => uint256) public nameToFavoriteNumber;\r\n\r\n  function store(uint256 _favoriteNumber) public {\r\n    favoriteNumber = _favoriteNumber;\r\n  }\r\n\r\n  function retrieve() public view returns(uint256){\r\n    return favoriteNumber;\r\n  }\r\n\r\n  function addPerson(string memory _name, uint256 _favoriteNumber) public {\r\n    people.push(People(_favoriteNumber, _name));\r\n    nameToFavoriteNumber[_name] = _favoriteNumber;\r\n  }\r\n\r\n  //function doubleFavNum(uint256 favoriteNumber) public pure {\r\n  //  favoriteNumber + favorite\r\n  //}\r\n\r\n  //view, pure keywords dont require transactions\r\n\r\n}\r\n",
  "sourcePath": "C:\\Users\\ytrev\\desktop\\custom-smart-contracts\\contracts\\SimpleStorage.sol",
  "compiler": {
    "name": "solc",
    "version": "0.6.12+commit.27d51765.Emscripten.clang"
  },
  "schemaVersion": "3.3.3",
  "updatedAt": "2021-10-27T09:08:24.749Z",
  "devdoc": {
    "kind": "dev",
    "methods": {},
    "version": 1
  },
  "userdoc": {
    "kind": "user",
    "methods": {},
    "version": 1
  }
}