{
  "contractName": "StorageFactory",
  "abi": [
    {
      "inputs": [
        {
          "internalType": "string",
          "name": "_name",
          "type": "string"
        },
        {
          "internalType": "uint256",
          "name": "_favoriteNumber",
          "type": "uint256"
        }
      ],
      "name": "addPerson",
      "outputs": [],
      "stateMutability": "nonpayable",
      "type": "function"
    },
    {
      "inputs": [
        {
          "internalType": "string",
          "name": "",
          "type": "string"
        }
      ],
      "name": "nameToFavoriteNumber",
      "outputs": [
        {
          "internalType": "uint256",
          "name": "",
          "type": "uint256"
        }
      ],
      "stateMutability": "view",
      "type": "function"
    },
    {
      "inputs": [
        {
          "internalType": "uint256",
          "name": "",
          "type": "uint256"
        }
      ],
      "name": "people",
      "outputs": [
        {
          "internalType": "uint256",
          "name": "num",
          "type": "uint256"
        },
        {
          "internalType": "string",
          "name": "name",
          "type": "string"
        }
      ],
      "stateMutability": "view",
      "type": "function"
    },
    {
      "inputs": [],
      "name": "retrieve",
      "outputs": [
        {
          "internalType": "uint256",
          "name": "",
          "type": "uint256"
        }
      ],
      "stateMutability": "view",
      "type": "function"
    },
    {
      "inputs": [
        {
          "internalType": "uint256",
          "name": "",
          "type": "uint256"
        }
      ],
      "name": "simpleStorageArray",
      "outputs": [
        {
          "internalType": "contract SimpleStorage",
          "name": "",
          "type": "address"
        }
      ],
      "stateMutability": "view",
      "type": "function"
    },
    {
      "inputs": [
        {
          "internalType": "uint256",
          "name": "_favoriteNumber",
          "type": "uint256"
        }
      ],
      "name": "store",
      "outputs": [],
      "stateMutability": "nonpayable",
      "type": "function"
    },
    {
      "inputs": [],
      "name": "createSimpleStorageContract",
      "outputs": [],
      "stateMutability": "nonpayable",
      "type": "function"
    },
    {
      "inputs": [
        {
          "internalType": "uint256",
          "name": "_simpleStorageIndex",
          "type": "uint256"
        },
        {
          "internalType": "uint256",
          "name": "_simpleStorageNumber",
          "type": "uint256"
        }
      ],
      "name": "sfStore",
      "outputs": [],
      "stateMutability": "nonpayable",
      "type": "function"
    },
    {
      "inputs": [
        {
          "internalType": "uint256",
          "name": "_simpleStorageIndex",
          "type": "uint256"
        }
      ],
      "name": "sfGet",
      "outputs": [
        {
          "internalType": "uint256",
          "name": "",
          "type": "uint256"
        }
      ],
      "stateMutability": "view",
      "type": "function"
    }
  ],
  "bytecode": "0x608060405234801561001057600080fd5b50610cbd806100206000396000f3fe608060405234801561001057600080fd5b50600436106100935760003560e01c806364591bf11161006657806364591bf1146100fc5780636f760f41146101355780638bab8dd5146101dd5780639e7a13ad14610283578063c5f19c201461031f57610093565b80631563700f146100985780631dda6541146100bd5780632e64cec1146100c55780636057361d146100df575b600080fd5b6100bb600480360360408110156100ae57600080fd5b508035906020013561033c565b005b6100bb6103b4565b6100cd610432565b60408051918252519081900360200190f35b6100bb600480360360208110156100f557600080fd5b5035610438565b6101196004803603602081101561011257600080fd5b503561043d565b604080516001600160a01b039092168252519081900360200190f35b6100bb6004803603604081101561014b57600080fd5b81019060208101813564010000000081111561016657600080fd5b82018360208201111561017857600080fd5b8035906020019184600183028401116401000000008311171561019a57600080fd5b91908080601f0160208091040260200160405190810160405280939291908181526020018383808284376000920191909152509295505091359250610464915050565b6100cd600480360360208110156101f357600080fd5b81019060208101813564010000000081111561020e57600080fd5b82018360208201111561022057600080fd5b8035906020019184600183028401116401000000008311171561024257600080fd5b91908080601f016020809104026020016040519081016040528093929190818152602001838380828437600092019190915250929550610555945050505050565b6102a06004803603602081101561029957600080fd5b5035610572565b6040518083815260200180602001828103825283818151815260200191508051906020019080838360005b838110156102e35781810151838201526020016102cb565b50505050905090810190601f1680156103105780820380516001836020036101000a031916815260200191505b50935050505060405180910390f35b6100cd6004803603602081101561033557600080fd5b5035610627565b6003828154811061034957fe5b600091825260208220015460408051636057361d60e01b81526004810185905290516001600160a01b0390921692636057361d9260248084019382900301818387803b15801561039857600080fd5b505af11580156103ac573d6000803e3d6000fd5b505050505050565b60006040516103c2906106b1565b604051809103906000f0801580156103de573d6000803e3d6000fd5b50600380546001810182556000919091527fc2575a0e9e593c00f959f8c92f12db2869c3395a3b0502d05e2516446f71f85b0180546001600160a01b0319166001600160a01b039290921691909117905550565b60005490565b600055565b6003818154811061044a57fe5b6000918252602090912001546001600160a01b0316905081565b604080518082019091528181526020808201848152600180548082018255600091909152835160029091027fb10e2d527612073b26eecdfd717e6a320cf44b4afac2b0732d9fcbe2b7fa0cf681019182559151805191936104ea937fb10e2d527612073b26eecdfd717e6a320cf44b4afac2b0732d9fcbe2b7fa0cf701929101906106be565b505050806002836040518082805190602001908083835b602083106105205780518252601f199092019160209182019101610501565b51815160209384036101000a600019018019909216911617905292019485525060405193849003019092209290925550505050565b805160208183018101805160028252928201919093012091525481565b6001818154811061057f57fe5b60009182526020918290206002918202018054600180830180546040805193821615610100026000190190911695909504601f810187900487028301870190955284825291955091939192909183018282801561061d5780601f106105f25761010080835404028352916020019161061d565b820191906000526020600020905b81548152906001019060200180831161060057829003601f168201915b5050505050905082565b60006003828154811061063657fe5b6000918252602091829020015460408051632e64cec160e01b815290516001600160a01b0390921692632e64cec192600480840193829003018186803b15801561067f57600080fd5b505afa158015610693573d6000803e3d6000fd5b505050506040513d60208110156106a957600080fd5b505192915050565b6105368061075283390190565b828054600181600116156101000203166002900490600052602060002090601f016020900481019282601f106106ff57805160ff191683800117855561072c565b8280016001018555821561072c579182015b8281111561072c578251825591602001919060010190610711565b5061073892915061073c565b5090565b5b80821115610738576000815560010161073d56fe608060405234801561001057600080fd5b50610516806100206000396000f3fe608060405234801561001057600080fd5b50600436106100575760003560e01c80632e64cec11461005c5780636057361d146100765780636f760f41146100955780638bab8dd51461013d5780639e7a13ad146101e3575b600080fd5b61006461027f565b60408051918252519081900360200190f35b6100936004803603602081101561008c57600080fd5b5035610285565b005b610093600480360360408110156100ab57600080fd5b8101906020810181356401000000008111156100c657600080fd5b8201836020820111156100d857600080fd5b803590602001918460018302840111640100000000831117156100fa57600080fd5b91908080601f016020809104026020016040519081016040528093929190818152602001838380828437600092019190915250929550509135925061028a915050565b6100646004803603602081101561015357600080fd5b81019060208101813564010000000081111561016e57600080fd5b82018360208201111561018057600080fd5b803590602001918460018302840111640100000000831117156101a257600080fd5b91908080601f01602080910402602001604051908101604052809392919081815260200183838082843760009201919091525092955061037b945050505050565b610200600480360360208110156101f957600080fd5b5035610398565b6040518083815260200180602001828103825283818151815260200191508051906020019080838360005b8381101561024357818101518382015260200161022b565b50505050905090810190601f1680156102705780820380516001836020036101000a031916815260200191505b50935050505060405180910390f35b60005490565b600055565b604080518082019091528181526020808201848152600180548082018255600091909152835160029091027fb10e2d527612073b26eecdfd717e6a320cf44b4afac2b0732d9fcbe2b7fa0cf68101918255915180519193610310937fb10e2d527612073b26eecdfd717e6a320cf44b4afac2b0732d9fcbe2b7fa0cf7019291019061044d565b505050806002836040518082805190602001908083835b602083106103465780518252601f199092019160209182019101610327565b51815160209384036101000a600019018019909216911617905292019485525060405193849003019092209290925550505050565b805160208183018101805160028252928201919093012091525481565b600181815481106103a557fe5b60009182526020918290206002918202018054600180830180546040805193821615610100026000190190911695909504601f81018790048702830187019095528482529195509193919290918301828280156104435780601f1061041857610100808354040283529160200191610443565b820191906000526020600020905b81548152906001019060200180831161042657829003601f168201915b5050505050905082565b828054600181600116156101000203166002900490600052602060002090601f016020900481019282601f1061048e57805160ff19168380011785556104bb565b828001600101855582156104bb579182015b828111156104bb5782518255916020019190600101906104a0565b506104c79291506104cb565b5090565b5b808211156104c757600081556001016104cc56fea26469706673582212208c4d0050e9bdec35dd35847fe65a4fb97804f81737958bf73fca493f9eb45b3a64736f6c634300060c0033a264697066735822122063dbeb8f0f58bebad0109bfc349c16f1496dafc18c8bf77235dfc2b8b73ca73864736f6c634300060c0033",
  "immutableReferences": {},
  "source": "// SPDX-License-Identifier: MIT\r\npragma solidity >=0.6.0 <0.9.0;\r\n\r\nimport \"./SimpleStorage.sol\";\r\n\r\ncontract StorageFactory is SimpleStorage {\r\n\r\n  SimpleStorage[] public simpleStorageArray;\r\n\r\n  function createSimpleStorageContract() public {\r\n    SimpleStorage simpleStorage = new SimpleStorage();\r\n    simpleStorageArray.push(simpleStorage);\r\n  }\r\n\r\n  function sfStore(uint256 _simpleStorageIndex, uint256 _simpleStorageNumber) public {\r\n    //SimpleStorage simpleStorage = SimpleStorage(address(simpleStorageArray[_simpleStorageIndex]));\r\n    //simpleStorage.store(_simpleStorageNumber);\r\n\r\n    SimpleStorage(address(simpleStorageArray[_simpleStorageIndex])).store(_simpleStorageNumber);\r\n  }\r\n\r\n  function sfGet(uint256 _simpleStorageIndex) public view returns (uint256){\r\n    //SimpleStorage simpleStorage = SimpleStorage(address(simpleStorageArray[_simpleStorageIndex]));\r\n    //return simpleStorage.retrieve();\r\n\r\n    return SimpleStorage(address(simpleStorageArray[_simpleStorageIndex])).retrieve();\r\n  }\r\n\r\n}\r\n",
  "sourcePath": "C:/Users/ytrev/desktop/custom-smart-contracts/contracts/StorageFactory.sol",
  "compiler": {
    "name": "solc",
    "version": "0.6.12+commit.27d51765.Emscripten.clang"
  },
  "schemaVersion": "3.3.3",
  "updatedAt": "2021-10-27T09:08:24.755Z",
  "devdoc": {
    "kind": "dev",
    "methods": {},
    "version": 1
  },
  "userdoc": {
    "kind": "user",
    "methods": {},
    "version": 1
  }
}